:020000040800F2
:10000000C80B002091010008F71B0008371A0008F0
:10001000F51B00082B050008E51E00080000000085
:10002000000000000000000000000000FB1B0008B2
:100030007107000800000000F91B0008FD1B000804
:10004000AB010008AB010008AB010008AB010008E0
:10005000AB010008AB010008AB010008AB010008D0
:10006000AB010008AB010008AB0100086507000800
:10007000AB010008AB010008AB010008AB010008B0
:10008000AB010008AB010008AB010008AB010008A0
:10009000AB010008AB010008AB010008AB01000890
:1000A000AB010008AB010008AB010008AB01000880
:1000B000AB010008AB010008AB010008AB01000870
:1000C000AB010008AB010008AB010008AB01000860
:1000D000AB010008CD1E0008D91E0008AB010008C6
:1000E000AB010008AB010008AB01000800F002F80A
:1000F00000F03FF80AA090E8000C82448344AAF183
:100100000107DA4501D100F034F8AFF2090EBAE880
:100110000F0013F0010F18BFFB1A43F0010318473B
:10012000D0330000F0330000103A24BF78C878C103
:10013000FAD8520724BF30C830C144BF04680C60ED
:10014000704700000023002400250026103A28BF35
:1001500078C1FBD8520728BF30C148BF0B60704739
:10016000642900F07D80002070471FB51FBD10B5C9
:1001700010BD00F074F91146FFF7F7FF01F066FFBC
:1001800000F092F903B4FFF7F2FF03BC00F09AF914
:100190000948804709480047FEE7FEE7FEE7FEE71B
:1001A000FEE7FEE7FEE7FEE7FEE7FEE70448054957
:1001B000054A064B70470000791C0008ED00000856
:1001C000C8050020C80B0020C8070020C807002071
:1001D0000FB41CB5074B06AA7B44694600900598EE
:1001E00000F025F90020694600F034F91CBC5DF8E8
:1001F00014FB0000790200002DE9F0410E46044690
:10020000002020622046E168884730B3252805D0C9
:10021000D4E901219047206A401CF2E7E1682046BA
:1002200000278847050018D0A5F14100192802D8F9
:1002300020354FF400673246294620462760FFF7F5
:100240008FFF40B1012804D0F61D26F007060836BE
:10025000D8E7361DD6E72846DAE7206ABDE8F08100
:100260002DE9F0410646002410687529314616A58F
:1002700010D0AFF30080002802DA404213A507E057
:1002800031688A0701D512A502E0490704D511A5F6
:10029000012401E0AFF3008000210A2206F12407C7
:1002A00009E0B0FBF2FCB0FBF2F302FB1C003030C3
:1002B00078541846491C0028F3D123462A46304674
:1002C000BDE8F04100F054B8000000002D0000002F
:1002D0002B000000200000004FF000020429C0F0B5
:1002E000128010F0030C00F01B80CCF1040CBCF168
:1002F000020F18BF00F8012BA8BF20F8022BA1EBBA
:100300000C0100F00DB85FEAC17C24BF00F8012B9E
:1003100000F8012B48BF00F8012B70474FF0000296
:1003200000B5134694469646203922BFA0E80C50EB
:10033000A0E80C50B1F12001BFF4F7AF090728BFC6
:10034000A0E80C5048BF0CC05DF804EB890028BF42
:1003500040F8042B08BF704748BF20F8022B11F06B
:10036000804F18BF00F8012B7047704770477047E7
:100370002DE9F0470D4699469246044600F12408BF
:100380000168880604D5E06921F01001216000E0D1
:100390000120A84201DD471B00E00027A1697A196E
:1003A00002EB0900081AA0612078C00602D420469A
:1003B000AFF30080002608E0D4E901211AF8060016
:1003C0009047206A401C761C20624E45F4DB207862
:1003D000C0060AD52046AFF3008006E0D4E901212B
:1003E00030209047206A401C2062381EA7F1010788
:1003F000F4DC07E0D4E9012118F805009047206AF1
:10040000401C2062281EA5F10105F3DC2046AFF355
:1004100000802078000602D50220BDE8F087012088
:10042000FBE7000001694A1C02610878704700B5CB
:100430008FB0CDE901310021059105497944CDE91D
:10044000031011466846FFF7D7FE0FB000BD00004D
:10045000E5FFFFFF0A6802F8010B0A607047754666
:1004600000F02CF8AE4605006946534620F0070020
:10047000854618B020B5FFF799FEBDE820404FF043
:1004800000064FF000074FF000084FF0000B21F07E
:100490000701AC46ACE8C009ACE8C009ACE8C0094B
:1004A000ACE8C0098D46704710B50446AFF3008034
:1004B0002046BDE81040FFF765BE000000487047C9
:1004C0006805002001491820ABBEFEE726000200A7
:1004D0007047000070B5044600688168C943C907C9
:1004E00017D1816821F00101816000F0EBFC054625
:1004F0000AE000BF00F0E6FC401B022804D9206897
:100500008068C043C00706D020688068C043C00729
:10051000F0D0002070BDA06A40F01000A062E06A38
:1005200040F00100E062012070BDFEE770B50024DC
:1005300000F028F8124D04E0641CE4B2012001F040
:10054000EFFC4021284600F0B3FC10B1642CF3D33B
:100550000FE0642C0DD2002404E0641CE4B20120FE
:1005600001F0DEFC4021284600F0A2FC18B1642C0A
:1005700004D3012070BD642CEFD3FAE7002070BDD6
:10058000000C014000B585B000200190039009489F
:10059000816941F0080181618069694600F00800C5
:1005A00004904020009001200290034800F090FB4E
:1005B00005B000BD00100240000C014010B586B02F
:1005C000002000900190029003900E48816941F054
:1005D0000801816180690C4C00F008000490012240
:1005E0004021204600F069FC4020009001200221BB
:1005F000CDE9010103916946204600F069FB06B090
:1006000010BD000000100240000C014010B586B083
:10061000002000900190029003901048816941F001
:100620000801816180690E4C00F0080004900122ED
:100630004021204600F041FC402000900120022192
:10064000CDE9010103916946204600F041FB00F02D
:1006500071F8FFF76BFF06B010BD000000100240FC
:10066000000C014070B50024134D04E0641CE4B29A
:10067000012001F055FC4021284600F019FC08B18A
:10068000642CF3D3002404E0641CE4B2012001F0E4
:1006900047FC4021284600F00BFC08B9642CF3D33A
:1006A000282001F03DFC4021284600F001FC0028F4
:1006B00000D0012070BD0000000C014070B500208A
:1006C00004464006050EFFF7CDFF641C2843E4B244
:1006D000082CF6D370BD2DE9FC471D4691460E4609
:1006E000804600F027F8FFF721FF10B10120BDE898
:1006F000FC8700246F46FFF7E1FF3855641CE4B225
:10070000052CF8D39DF800209DF801309DF80210CB
:100710009DF80300D4180F183C449DF80470BC42A7
:1007200005D132702B7088F8001089F80000002085
:10073000DDE7000010B5FFF741FF094C0022402122
:10074000204600F0BAFB142001F0DDFB012240211D
:10075000204600F0B2FBBDE810401E2001F0E0BBD7
:10076000000C0140014800F0C9B900004C00002015
:10077000704772B6FEE70000F8B50024009490F8C8
:1007800024202546012A12D0012280F824204A681C
:100790001F23072A0DD20668776B521E02EB8202D6
:1007A00093409F430B6893401F43776319E00220F7
:1007B000F8BD06680D2A0AD2376BD21F02EB8202FF
:1007C00093409F430B6893401F43376309E0F76AE8
:1007D0000D3A02EB820293409F430B6893401F4304
:1007E000F7620A68072306680A2A0AD3F7680A3AF2
:1007F00002EB420293409F438B6893401F43F76094
:1008000008E0376902EB420293409F438B689340B4
:100810001F4337610A68102A01D0112A20D1124BD8
:1008200002689A4217D193681B0219D4936843F463
:10083000000393600968102912D10C490C4A096819
:10084000B1FBF2F101EB8101490000E0491E00918A
:100850000029FBD104E0816A41F02001816201247A
:1008600080F824502046F8BD0024014018000020E4
:1008700040420F002DE9F0414FF0000704003D46D3
:100880007ED0A06A002628B9E66284F8246020465B
:1008900000F07EF82046FFF71DFEA16AC90600D4CD
:1008A00020B1A06A40F01000A06269E0A16A21F4C2
:1008B000885141F00201A1626268E169237B0A4329
:1008C00047EA43010A43A1684FF48077B94209D04F
:1008D000012907D05FF0000194F814C0BCF1010FAA
:1008E00002D00AE03946F7E7F3B1A36A43F02003E8
:1008F000A362E36A43F00103E3622368D3F804C010
:100900002CF4694C4CEA010CC3F804C021688B68D4
:10091000DFF870C003EA0C0313438B60A168B9428F
:100920000BD0012909D00CE0DFF85CC0A3690CEB07
:1009300043330B4343F40061DFE7218A0D05A5F53E
:1009400080152168CB6A23F470032B43CB622168A6
:1009500089680E4B1940914208D1E662A16A21F0E4
:10096000020141F00101A162BDE8F081A06A20F01E
:10097000020040F01000A062E06A40F00100E06276
:100980000120F1E7FDF7E1FF00E0FFFFFE0E1FFF92
:1009900070B586B000250646009501950295039531
:1009A0000068194988422DD11849886940F40070BF
:1009B0008861886900F400700490886940F0040040
:1009C00088618869694600F0040004900320009063
:1009D00001900F4800F07CF90F4C0E48C4E9000567
:1009E0008020C4E902504000206180006061202026
:1009F000C4E90605204600F02BF908B1FFF7B9FE5F
:100A00003462666206B070BD0024014000100240EE
:100A100000080140080002404C00002010B590F88A
:100A200021100022022905D00421816380F82020B2
:100A3000012010BD01680B6823F00E030B600168F4
:100A40000B6823F001030B6090F84030C46B012168
:100A500001FA03F3636080F8211080F8202010462B
:100A600010BD000010B590F821100024022903D019
:100A70000421816301243DE001680A6822F00E022E
:100A80000A6001680A6822F001020A601A4A0168D5
:100A9000914201D1012121E0174A1432914201D142
:100AA00010211BE0144A2832914201D1891515E02A
:100AB000114A3C32914201D189140FE00E4A503262
:100AC000914202D14FF4803108E00B4A64329142E6
:100AD00002D14FF4801101E04FF08071064A083ACC
:100AE0005160012180F82110002180F82010416B15
:100AF00001B18847204610BD080002402DE9F05F93
:100B0000C16B0C6801680B68D0F840C0042202FA7F
:100B10000CF2494DDFF824A1494E4A4FDFF828B1C5
:100B2000DFF828E122422CD05A072AD50A6892061B
:100B300003D40A6822F004020A600168A94201D1C4
:100B4000042219E0514501D1402215E0B14202D101
:100B50004FF4806210E0B94202D14FF480420BE0C2
:100B6000594502D14FF4802206E0714502D14FF47D
:100B7000800201E04FF080622F4908394A60C16A63
:100B80003BE04FF0020808FA0CF818EA040F4FF0A7
:100B900000094FF0010235D05FEA837832D50B6847
:100BA0009B0605D40B6823F00A030B6080F8212014
:100BB0000168A94201D1022219E0514501D1202248
:100BC00015E0B14202D14FF4007210E0B94202D1F7
:100BD0004FF400520BE0594502D14FF4003206E0C9
:100BE000714502D14FF4001201E04FF0007212493A
:100BF00008394A6080F82090816A00291AD0BDE83F
:100C0000F05F0847082505FA0CF5254212D01B07AE
:100C100010D50B6823F00E030B6090F84010C36BE7
:100C200002FA01F15960826380F8212080F8209057
:100C3000016BE2E7BDE8F09F080002401C000240A3
:100C40003000024044000240580002406C00024064
:100C500030B528B308C8134914221944B1FBF2F186
:100C60008900C16310498163022141771A6843F604
:100C7000F0718A43D0E900142143D0E902452C43A6
:100C80002143046921434469214384692143114379
:100C9000196000214163012242770177084630BD87
:100CA000012030BDF8FFFDBF0000024070B50446D2
:100CB00000F008F90546601C02D00448007804449E
:100CC00000F000F9401BA042FAD370BD0C000020D8
:100CD0002DE9F84FDFF8B8910024A9F1040B234661
:100CE0000F2709F1040AABF1040EC9E00125A54064
:100CF0002A40AA427DD1674ED1F804C0ACEB060869
:100D0000B44532D014DCBCF1030F3AD009DCBCF19D
:100D1000000F2AD0BCF1010F1CD0BCF1020F31D161
:100D20001DE0BCF1110F17D0BCF1120F2AD119E050
:100D3000B8F5881F19D006DCB8F5803F15D0B8F596
:100D4000801F1FD111E0B8F5001F0ED0B8F5041FA9
:100D500018D10AE0CB6815E0CB681B1D12E0CB6808
:100D600008330FE0CB680C330CE08B682BB1012B00
:100D70004FF0080303D0456104E0042302E005615D
:100D800000E00023FF2A01D8064601E000F1040636
:100D90004FEA840501D9A5F12005D6F8008007FAAD
:100DA00005FC28EA0C0803FA05F548EA0508C6F828
:100DB00000804D68ED0062D5374DAE6946F0010602
:100DC000AE61AD6924F0030605F001050095334DD1
:100DD00006EB050CDCF80850A607360F07FA06F8F4
:100DE00025EA0805DFF8B880404503D14FF0000838
:100DF00017E044E0DFF8AC80404502D14FF0010835
:100E00000FE0DFF8A480404502D14FF0020808E06F
:100E1000DFF89880404502D14FF0030801E04FF021
:100E2000040808FA06F848EA0508CCF808804D6876
:100E3000D9F80060ED024D4601D5164300E0964317
:100E40002E604D68DAF80060AD02554601D51643B4
:100E500000E096432E604D68DBF80060AD035D4610
:100E600001D5164300E096432E604D68DEF8006021
:100E7000ED03754601D5164300E096432E60641CD1
:100E80000D682A46E5407FF431AFBDE8F88F0000D9
:100E90000804014000001110001002400000014051
:100EA00000080140000C0140001001400014014006
:100EB0008068084000D0012070470AB10161704786
:100EC0000904FBE701488068704700000C0000201F
:100ED0000248816802781144816070470C0000204C
:100EE000074810B5016841F010010160032000F0CF
:100EF00075F8002000F006F800F024F8002010BD7E
:100F00000020024070B50D4D04464FF47A712878E8
:100F1000B1FBF0F00A490968B1FBF0F000F052FBB8
:100F200048B9102C07D200222146501E00F036F896
:100F300000206C6070BD012070BD00000C0000201E
:100F4000180000200C4808B5816941F00101816159
:100F5000816901F001010091C16941F08051C161D5
:100F6000C06900F0805000900448416821F0E061C1
:100F700041F00071416008BD0010024000000140D6
:100F8000002809DB00F01F02012191404009800088
:100F900000F1E020C0F8001170470000F0B40E4BE3
:100FA0001B680C46C3F30223C3F10705042D00D9C7
:100FB0000425191D072901D2002300E0DB1E0126AC
:100FC00006FA05F1491E214099409E40761E1640C2
:100FD0003143F0BC00F087BF0CED00E0064900F0A3
:100FE000070208684FF6FF03184040EA0220034A50
:100FF00010430860704700000CED00E00000FA05A7
:101000002DE9F84305460078354CC00754D0E06917
:101010000026C00008D4E06940F08050E061E0693B
:10102000012600F0805000902E480168C90512D4B6
:101030000168804641F480710160FFF743FF074675
:1010400005E000BFFFF73EFFC01B642823D8D8F897
:101050000000C005F6D5206A10F4407021D0A988A0
:1010600001F4407181421CD0206A1F49012220F402
:1010700040700A6000220A602062C00711D0FFF7AA
:1010800021FF074641F2883808E000BFFFF71AFF4A
:10109000C11B414502D90320BDE8F883206A8007BF
:1010A000F4D5206A696820F44070084320621EB1BC
:1010B000E06920F08050E0612878800705D56068FD
:1010C000A96820F44040084360602878C00605D530
:1010D0006068E96820F48000084360600020DBE776
:1010E0000010024000700040400442422DE9F047E9
:1010F0000F46050061D0434E306800F00700B8424B
:1011000009D2306820F0070038433060306800F0C2
:101110000700B84251D128683B4C810712D54007DF
:1011200003D5606840F4E06060602878000703D56C
:10113000606840F4605060606068A96820F0F0006A
:10114000084360602878C00728D06868012810D05C
:101150002168022810D0890700292EDA616821F061
:10116000030101436160FFF7ADFE804641F288391B
:101170000DE021688903EFE78901EDE7FFF7A2FEA3
:10118000A0EB0801494502D90320BDE8F08760685B
:10119000696800F00C00B0EB810FEFD1306800F00F
:1011A0000700B8420BD9306820F0070038433060A0
:1011B000306800F00700B84201D00120E5E7287848
:1011C000400705D56068E96820F4E0600843606086
:1011D0002878000706D56068296920F4605040EA45
:1011E000C100606000F038F86168084AC1F303117B
:1011F000515CC8400649086006480068FFF782FE57
:101200000020C2E70020024000100240D63400084F
:1012100018000020100000200448054900684968B3
:10122000044AC1F30221515CC840704718000020F5
:1012300000100240E6340008044805490068496887
:10124000044AC1F3C221515CC84070471800002015
:1012500000100240E63400080E4A51680E4801F0C2
:101260000C03042B11D0082B0FD10C48C1F383437E
:10127000C903C05C0AD55168084AC1F34041921EB7
:10128000515C054A5043B0FBF1F0704704494843B4
:10129000704700000010024000127A00C6340008B7
:1012A00000093D002DE9F84F040070D02078C04DB2
:1012B000C00749D06868C0F38100012807D068687A
:1012C000C0F38100022809D16868C00306D52868E8
:1012D000800339D560680028E7D035E06068B0F554
:1012E000803F0BD010B1B0F5A02F11D0286820F4AA
:1012F00080302860286820F4802002E0286840F4CC
:1013000080302860606890B1FFF7DCFD06460AE097
:10131000286840F480202860F0E700BFFFF7D2FD86
:10132000801B642873D828688003F7D50CE0FFF78A
:10133000C9FD064605E000BFFFF7C4FD801B642819
:10134000F0D828688003F7D420789A4E80074FF0B1
:1013500001094FF0000839D5686810F00C0F07D06C
:101360006868C0F38100022809D16868C00306D408
:101370002868800714D52069012808D110E0206969
:10138000B0B1C6F80090FFF79DFD074605E00AE101
:10139000FFF798FDC01B0228C4D828688007F7D53E
:1013A0002868616920F0F80040EAC10028600DE07B
:1013B000C6F80080FFF786FD074604E0FFF782FDD0
:1013C000C01B022823D828688007F7D4207800079C
:1013D0002CD57948A169D9B1C0F80090FFF772FD0A
:1013E000074604E0FFF76EFDC01B02280FD8686AAD
:1013F0008007F7D571484FF4FA510068B0FBF1F05F
:10140000009000BF0098411E0091FAD20EE080E0EB
:10141000C0F80080FFF756FD074604E0FFF752FDD5
:10142000C01B022875D8686A8007F7D42078400767
:1014300060D5E8690027C00008D4E86940F0805012
:10144000E861E869012700F0805000905C4801687D
:10145000C90513D40168834641F480710160FFF728
:1014600031FD824606E000BFFFF72CFDA0EB0A002D
:1014700064284ED8DBF80000C005F5D5E0680128E7
:101480000AD008B1052813D0286A20F0010028628C
:10149000286A20F0040002E0286A40F00100286277
:1014A000E06841F2883B98B1FFF70CFD82460BE003
:1014B000286A40F004002862EEE700BFFFF702FD53
:1014C000A0EB0A0159455AD8286A8007F6D50CE0E6
:1014D000FFF7F8FC824605E0FFF7F4FCA0EB0A01F9
:1014E00059454CD8286A8007F6D41FB1E86920F026
:1014F0008050E861E06988B36968C1F3810102291D
:1015000044D00228C6F8608004D0FFF7DBFC044614
:1015100038E034E0FFF7D6FC074604E0FFF7D2FCE2
:10152000C01B02282BD828688001F7D4206AB0F5A8
:10153000803F05D16868A16820F4003008436860E6
:10154000D4E908010843696821F47411084368600C
:10155000C6F86090FFF7B6FC044606E025E000BF41
:10156000FFF7B0FC001B022809D828688001F7D5D6
:101570001BE000BFFFF7A6FC001B022802D90320D6
:10158000BDE8F88F28688001F4D40EE00128F7D078
:101590006868226A00F48031914204D1616A00F4E3
:1015A0007010884201D00120EAE70020E8E700003F
:1015B0000010024000004242800442421800002015
:1015C0000070004010B5401EB0F1807F01D30120B3
:1015D00010BD4FF0E02460610F21601700F083FC24
:1015E0000020A06107202061002010BD70477047D7
:1015F000F8B5016804460868CA684B6910F00F0F17
:101600004FF0000559D003F0010602F490773743FC
:1016100065D0C10705D0D10503D5616C41F001014A
:101620006164410705D5D90703D0616C41F002011F
:101630006164810705D5D90703D0616C41F00401CD
:101640006164010707D502F02001314303D0616CCA
:1016500041F008016164616C00293AD0800604D52C
:10166000900602D5204600F037FB20684069616C87
:10167000C0F38010090700D460B3204600F005FBDA
:1016800020684069400621D52068143050E8001FCA
:1016900021F0400140E80012002AF5D1E06BA8B12A
:1016A0006D494163E06BFFF7DDF9002811D0E06B75
:1016B000416B01B0BDE8F040084783060FD59306A3
:1016C0000DD52046BDE8F84000F006BB2046FFF7E8
:1016D0008EFFF8BD2046FFF78AFF6564F8BD266BD4
:1016E0002023012E7CD1C6067AD5D60678D5086887
:1016F0004868009048694FF00206400640D5E16B0B
:10170000086840680004000CE8D0A28D8242E5D948
:10171000E085886920282DD020680C3050E8001F13
:1017200021F4807140E80012002AF5D120681430BD
:1017300050E8001F21F0010140E80012002AF5D115
:101740002068143050E8001F21F0400140E80012EA
:10175000002AF5D184F84230256320680C3050E827
:10176000001F21F0100140E80012002AF5D1E06BC3
:10177000FFF754F96663A08DE18D401A81B22AE02B
:10178000A08DE18D401A81B2E08D0028A6D00029FD
:10179000A4D022680C3252E8000F20F4907042E886
:1017A0000007002FF5D12068143050E8002F22F0F8
:1017B000010240E80027002FF5D184F8423025636C
:1017C00020680C3050E8002F22F0100240E800237F
:1017D000002BF5D166632046FFF708FFF8BDFFE751
:1017E00005062BD5150629D594F841002128F5D1F9
:1017F000A068B0F5805F01D12069B0B1206A411CBA
:101800002162216800784860E08C401E0004000CD2
:10181000E084E3D12068C16821F08001C1602068C4
:10182000C16841F04001C160D8E7206A0088C0F378
:1018300008004860206A801C2062E5E74006CDD59C
:101840005006CBD5CA68204622F04002CA6084F810
:10185000413000F0EFF8C1E77B1C000870B50400D0
:1018600004D094F84100002510B106E0012070BDBD
:1018700084F84050204600F023F8242084F84100EA
:101880002068C16821F40051C160204600F086FA4A
:101890002068016921F4904101612068416921F0CB
:1018A0002A0141612068C16841F40051C16065644A
:1018B000202084F8410084F842006563002070BD58
:1018C00070B586B0002400940194029403942E4EC7
:1018D00003682E49022003222D4DB34226D18B6985
:1018E00043F480438B618B6903F4804304938B69D9
:1018F00043F004038B618969039201F004010491B0
:101900000102CDE9001069462846FFF7E1F92815E4
:10191000CDE90004694628460294FFF7D9F9002270
:1019200001212520FFF73AFB252028E0194EB3427C
:1019300027D1CB6943F40033CB61CB6903F4003387
:1019400004938B6943F004038B618969039201F06E
:10195000040104910421CDE9001069462846FFF7EF
:10196000B7F90820CDE90004694628460294FFF73C
:10197000AFF9002202212620FFF710FB2620FFF7F7
:10198000FFFA06B070BD00000038014000100240B0
:10199000000801400044004070472DE9F843044628
:1019A00090F841001F4616460D46202802D002201E
:1019B000BDE8F8837DB176B100206064212084F811
:1019C0004100FFF77FFAA6848046E684A068B0F560
:1019D000805F02D003E00120EAE7206910B12E46C3
:1019E00000250EE000260CE08021204600F032FAAF
:1019F000A0B9AEB116F8010B21684860E08C401E1A
:101A0000E084E08C43464FF0000200970028EBD1C1
:101A10004FF04001204600F01DFA30B10320C7E727
:101A200035F8020BC0F30800E6E7202084F84100F7
:101A30000020BDE77047FEE7FEB50024164800947D
:101A4000019414490294016089158160047304753E
:101A5000022505614FF460214460C161FEF70AFF71
:101A600008B1FEF786FE0126CDE9004669460A4820
:101A70000294FEF781FE08B1FEF77BFECDE900651A
:101A800069460548FEF778FE002801D0FEF771FE92
:101A9000FEBD0000002401401C000020094808B5DC
:101AA000416941F0010141614069002200F00100FB
:101AB000009011460B20FFF771FABDE808400B209B
:101AC000FFF75EBA001002402DE9F04186B0002415
:101AD00029480094019402940394816941F0100113
:101AE0008161816901F010010491816941F0200157
:101AF0008161816901F020010491816941F0040153
:101B00008161816901F004010491816941F008015A
:101B100081618069194F00F0080004900022302193
:101B20003846FFF7CAF9DFF858804FF48256002292
:101B300031464046FFF7C1F930200125CDE90005C7
:101B40000320CDE9024069463846FFF7C1F802207C
:101B5000CDE90240CDE9006569464046FFF7B8F897
:101B60008020CDE90004694640460294FFF7B0F8B2
:101B700006B0BDE8F08100000010024000080140FE
:101B8000000C01400C4810B50A4901604FF4E131E6
:101B90004160002181600C22C160C0E904128161B2
:101BA000C161FFF75BFE002803D0BDE81040FEF7DF
:101BB000E0BD10BD00380140900000200C4810B579
:101BC0000A4901604FF4E1314160002181600C223B
:101BD000C160C0E904128161C161FFF73FFE0028C6
:101BE00003D0BDE81040FEF7C4BD10BD0044004066
:101BF000D8000020FEE7FEE770477047FFF768B99E
:101C000030B593B028216846FEF788FB14210AA856
:101C1000FEF784FB002501200F9510951195010416
:101C200012958DE8230004904FF4E010CDE90810E0
:101C3000022407946846FFF735FB08B172B6FEE749
:101C40000AA90F2081E831004FF48060CDE90D052D
:101C500002210AA8FFF74AFA08B172B6FEE74FF46C
:101C6000004011900F940FA8FFF7CAF9002801D087
:101C700072B6FEE713B030BD704710B5406A002160
:101C8000C185C184FFF7B3FC10BD01680C3151E878
:101C9000002F22F4907241E80023002BF5D1016857
:101CA000143151E8002F22F0010241E80023002BFB
:101CB000F5D1016B012909D101680C3151E8002FE0
:101CC00022F0100241E80023002BF5D1202180F8FA
:101CD000421000210163704708B590F84210222994
:101CE00001D0022008BD82684FF480539A4201D18E
:101CF000016921B1816A9A421BD04AB10AE00268A7
:101D0000816A5268C2F308020A80816A891C08E06D
:101D1000026972B10268526802F07F020A70816A39
:101D2000491C8162C18D491E0904090CC18503D07B
:101D30001BE002685268F1E70168CA6822F02002DD
:101D4000CA600168CA6822F48072CA6001684A6980
:101D500022F001024A61202180F8421000214163F3
:101D6000026B012A03D0FFF717FE002008BD0163B4
:101D700001680C3151E8002F22F0100241E80023E5
:101D8000002BF5D101680A68D20602D50A684968B5
:101D90000091818DFFF72AFCE7E7000070B504464B
:101DA00000680169E26821F4405111430161216931
:101DB000A0680843616908432168CA6841F20C635E
:101DC0009A430243CA6020684169A26921F44071C4
:101DD000114341611E492068884202D1FFF72CFA65
:101DE00001E0FFF719FA00EBC00101EB0012606897
:101DF00064218000B2FBF0F3B3FBF1F36FF018063F
:101E00007343B2FBF0F5B2FBF0F605EB830532232A
:101E100003EB0515B5FBF1F5B6FBF1F605F0F005A2
:101E200005EB0615B2FBF0F6B2FBF0F0B0FBF1F0FB
:101E30006FF01802504306EB800003EB0010B0FB7C
:101E4000F1F0216800F00F002844886070BD0000A8
:101E5000003801402DE9F041984617460E460446E9
:101E6000069D27E0681C25D02DB1FFF72BF8A0EBCD
:101E70000800A8421ED920680C3050E8001F21F449
:101E8000D07140E80012002AF5D12068143050E8E3
:101E9000001F21F0010140E80012002AF5D12020A6
:101EA00084F8410084F84200002084F840000320B8
:101EB000BDE8F0812068006836EA000004D0002008
:101EC000B842CFD00020F3E70120F9E70148FFF73F
:101ED0008FBB0000900000200148FFF789BB000085
:101EE000D8000020FEE70907090E002804DB00F1F6
:101EF000E02080F80014704700F00F0000F1E020AF
:101F000080F8141D704731B500244FF47A7503E052
:101F1000284600F005F8641C00988442F8D338BDC8
:101F200071B54FF461754FF0E023104E009819E041
:101F30002C46A04200D804469869614201EBC101D9
:101F400010EBC10105D49A69824208DA8A42FADAB2
:101F500005E08A1999698142FCDD9142FADC00981A
:101F6000001B00900028E3D178BD0000401901005B
:101F700000224C2100F0EABF00224D2100F0E6BF14
:101F800001684A7B2D2100F0E1BF10B50446012213
:101F90004C2100F0DBFF2046BDE81040FFF7F0BF0A
:101FA00001224D2100F0D2BF10B5044611B1FFF758
:101FB000F7FF01E0FFF7E0FF2046FFF7E1FF2046D3
:101FC000FFF7E3FF2046BDE81040FFF7D1BF70B533
:101FD0000C46054601F08001FFF7E6FF04F04001E2
:101FE0002846FFF7E1FF04F020012846FFF7DCFF59
:101FF00004F010012846FFF7D7FF04F00801284637
:10200000FFF7D2FF04F004012846FFF7CDFF04F0EC
:1020100002012846FFF7C8FF04F001012846FFF738
:10202000C3FF2846FFF7BCFF2846FFF7A9FF284655
:10203000FFF7ABFF2846FFF7B3FF2846FFF7A0FFE7
:102040002846BDE87040FFF793BF0000A6B0FEF73A
:1020500047FFFFF7D5FDFFF737FDFFF71FFDFFF740
:10206000EBFCFFF78FFDFFF7A9FDFEF7CFFA6846FF
:1020700000F026F84FF47A74234605220CA10E488E
:10208000FFF78BFC0D4B5A1E511E481EFEF723FB1B
:10209000684600F0CFF8684600F072FC684600F031
:1020A000EFF80028F7D12046FEF700FEEAE700002F
:1020B0003131313131000000900000200300002058
:1020C00010B50446084B094A094900F04FF920466B
:1020D00000F0C1FC0021204600F0CDFC2046BDE808
:1020E000104000F007B80000BD2E0008192B0008B2
:1020F0006033000801680A7C90F83810406B514347
:10210000C900FEF7E9B82DE9F041044690F87000E7
:102110001F4615460E4630B1012809D002280CD0C2
:10212000032815D10FE0E16D20468847284408E0D8
:10213000E16D20468847301A09E0E16D2046884766
:10214000281A85B204E0E16D20468847304486B203
:102150002846A4F86460A4F86600394600252046A5
:1021600000F0FAFA010003D0204600F025FA85B20B
:102170002846BDE8F08100003FB581B0044690F8E4
:102180008C00089900283AD0BDF81000002836D0FD
:10219000012811D9022902D0032907D00CE0BDF88B
:1021A0000820101A401CADF8080005E0BDF80C200E
:1021B000101A401CADF80C0011F0010521D0B4F844
:1021C0004810BDF80800814219D8B4F84A1081427D
:1021D00015D9B4F84E30B4F84C2004A90DF10C0018
:1021E00000F05CF900280AD00095206BBDF8103093
:1021F000BDF80C208568BDF808102046A84705B03A
:1022000030BDB4F84C10BDF80C008142F7D8B4F8DA
:102210004E108142F3D9B4F84A30B4F8482004A9EA
:1022200002A8DDE730B4024C446030BC00F063B972
:10223000DD2A000810B5044690F8930010B120463E
:10224000FFF758FF2046BDE81040002100F037B8E6
:1022500070B50D461E460446B0F84E10B0F84C005E
:10226000049B00F0D6FA002809D0B4F84A10B4F85C
:10227000480033462A46BDE8704000F0CABA70BD37
:1022800070B5044600F055FB94F8390094F8381006
:102290000844C5B22068407CA84204D8204600F01B
:1022A000E2FB002070BD94F8930010B12046FFF7C8
:1022B00021FF2946204600F002F8012070BD10B52C
:1022C000044680F83910006B016820468847206B6F
:1022D00041682046BDE81040084710B50446806DAF
:1022E000884209D004F17400A16500F0EDFA20469F
:1022F000BDE8104000F056B810BD00000149C165AE
:10230000704700006D2500080021A0F85010A0F8CB
:1023100054104FF6FF71A0F85210A0F85610016B40
:102320004968084770B5044600250498A565E3622E
:10233000616384F8382084F8395084F86D5084F84B
:10234000915084F88D50012184F8921084F89310F4
:1023500020630168204688472046FFF7D5FF2046C6
:10236000FFF7CCFF84F8705070BD00007CB50C46C0
:10237000009313460546084A084900F084FB01A86B
:1023800000F09CFA0146064B00949DF80420284674
:10239000FFF7C8FF7CBD00008D2C0008B52D00089C
:1023A0002D28000810B5816D00291AD090F98130D0
:1023B00080F88E3090F9822080F88F2090F88D1070
:1023C00000290ED001290DD090F97E4090F980109F
:1023D0000C449C4201DD80F88E408A4201DD80F889
:1023E0008F1010BD90F983108B4201DA80F88E10A7
:1023F00090F98410F1E72BB1012B05D0022B06D008
:10240000104402E0084400E0801A80B27047401A8D
:10241000FBE72BB1012B05D0022B06D0401A02E0BE
:10242000104400E0084480B27047801AFBE738B5DA
:102430000446B0F856000090B4F85230B4F8542076
:10244000B4F850102046FFF703FF18B3012084F8BA
:102450008C00B4F84810B4F85000814201D2A4F8BE
:102460004800B4F84A10B4F85200814201D9A4F8E7
:102470004A00B4F84C10B4F85400814201D2A4F8D8
:102480004C00B4F84E10B4F85600814201D9A4F8BB
:102490004E0038BD002084F88C0038BD30B504886B
:1024A0000D882544ADB2AC4205D99C4202D25D1ED6
:1024B000ADB200E014469C4201D2954201D8002002
:1024C00030BD944200D214469D4200D91D4604807E
:1024D000281B0880012030BD38B5C58F049C0094AE
:1024E000521BC46A92B2A04738BD38B5049C009410
:1024F000FFF7F2FF38BD2DE9F0471C4691468846AC
:10250000064600F03FFD00254FF6FF777268217800
:10251000304690470346B84225D0641CA3F57F405F
:10252000FE38F3D04A4641463046FFF7ECFD96F8B8
:10253000701031B1012907D0022908D003290FD129
:102540000AE008EB000104E009EB000106E0A8EB5B
:1025500000011FFA81F803E0A9EB00011FFA81F9DD
:10256000284485B2D2E72846BDE8F08700207047AE
:1025700010B50C4600F006F80122641EA240801A35
:1025800040B210BD30B50568047B2A78E24063187C
:10259000DBB2082B09D36D1C05602D78C4F108044B
:1025A000A5401543083BEAB2DBB201248C40641E0F
:1025B00014400373204630BD2DE9F843054600F171
:1025C000600400F00CF915F96B6F2046E97BFFF70A
:1025D000CFFF8146297C2046FFF7CAFF0746697C6A
:1025E00020466B3DFFF7C4FF804694F90A0000289F
:1025F00057DDF019404247B2237CA0883A4649464D
:10260000FFF7F9FEA080237C3A46E0884946FFF7B1
:1026100000FFE080A188277C02460B4637B1012FDE
:102620000AD0022F40D0032F0FD146E094F90A7050
:1026300030443B449BB207E0891B491C94F90A7063
:102640005B1C89B29BB2384480B200902846FFF7E9
:10265000FFFD30B30020207284F8090095F8761051
:102660002046FFF78FFF814695F877102046FFF749
:1026700089FF074600224946284600F027F8012234
:102680003946284600F022F801212046FFF77AFF5C
:102690000028EFD194F90900B042DFDBA07B85F878
:1026A00092004046BDE8F88394F90A705B1CC91B90
:1026B000491C89B29BB2921B04E094F90A7033441E
:1026C0009BB2D21B521C92B2401CBDE72DE9F74FC2
:1026D00084B00D46049C94F8687094F86980603466
:1026E000A07AC01BC6B20196B54200D201954FFA3E
:1026F00088F279B2A088B4F806B0237C9246894665
:10270000FFF779FE0290237C524649465846FFF770
:1027100080FE0246069808B1A17B02E0607B50B9BA
:10272000E17B049880F89210207C0090DDE9013173
:102730000498FFF721FDB54207D3A81BC5B208F1E5
:102740000100002700F0FF08CAE77819207284F81A
:10275000098007B0BDE8F08F70B50D460146806D69
:102760001730FF2D10D8612D02D3B1F8881003E087
:10277000412D02D3B1F886100844417819B302788C
:10278000AA42F9D1801C70BDB1F88A100C182646F7
:102790000021304600F019F804440221304600F0D0
:1027A00014F8361DA842F3D34FF6FF72207802EAE0
:1027B00000216078084306D0A84201D1E01C70BD1A
:1027C000A0780444F2E7002070BD08444FF6FF7281
:1027D0000178407802EA0121084480B2704730B5A0
:1027E000054600F1600401660020207315F8781F8B
:1027F0002046FFF7C7FEA07269782046FFF7C2FEA9
:10280000E072A87EA07310B10020E07330BD0120FB
:10281000FBE78A4205D2834201D89A4203D90120BC
:1028200070478342F9D8002070470000F0B502F0ED
:1028300007060124B440002590F892E0E7B2DDF8E5
:1028400014C02C46BEF1010F01D83D4600D03C46D5
:10285000076822F00702BCF1000F3F7C07FB02F77C
:10286000BAB2476B3A44114409D108785B1E284339
:1028700060401B0401F8010B1B0CF6D1F0BD0A7877
:10288000761C2A436240A3F101030A7016F0070682
:102890009BB206D06A06150E6206140E002BEED10E
:1028A000F0BD428F114490F89220012A03D800BF56
:1028B0004FF00105F2D04FF00104EFE7082101705D
:1028C000004870476601002070B5054608782870FA
:1028D000487868708878A870C878E8700879287196
:1028E0004879687188790C46A871E079E871207A96
:1028F0002872607A6872A07AA872E07AE872207B07
:102900002873607B6873A07BA873E07BE873207CEE
:10291000287411212046FFF758FF688213212046B2
:10292000FFF753FFA88215212046FFF74EFFE882EC
:1029300070BD2DE9F843064690F8387090F839508C
:10294000006800244FF6FF7890F811903168304607
:102950002A460B7C716B04FB03FC1FFA8CFC08EA13
:10296000CC0C61440091002100F066F8641C6D1CE1
:10297000E4B2EDB2BC4201D24D45E7D3BDE8F883E5
:1029800010B504460949FFF7A8FC09480AA10378D5
:10299000084802780C48FDF71BFC20460F22BDE8D2
:1029A0001040094B0021FFF73DBC00008C2F0008B0
:1029B000010000200000002074656D703A25642C31
:1029C00068756D693A25640020010020F0B590F823
:1029D00038204FF6FF75036805EAC2018187197C2C
:1029E00005EAC101418790F8394005EAC401C18771
:1029F0005E7CA718B74201D9321B92B205EAC20227
:102A000020F8401F11444180998A8180D98AC18071
:102A1000F0BDFFF7DBBF0021A0F84810B0F844106C
:102A2000A0F84A10B0F84010A0F84C10B0F84210CE
:102A3000A0F84E10FFF7FBBC1CB58DF805108DF803
:102A40000620049C8DF804300094012284686B46B3
:102A50000F21A0471CBD30B484680023A44630BCBD
:102A60001A460A21604730B484680023A44630BC6B
:102A70001A461021604730B484680023A4460A46F1
:102A800030BC0B2160472DE9F04115460E46044647
:102A9000069F00F009F86761A660C4E90353204669
:102AA000BDE8F04100F012B8002140F8081B064ACA
:102AB000026042608260C260C17681770161FF215D
:102AC000017780F820107047B92E000830B4846870
:102AD0000023A44630BC1A4609216047080001D0F3
:102AE0000A2801D14FF6FF70704730B40469002303
:102AF000A44630BC1A461921604713B50122046967
:102B000001AB1721A0471CBD30B404690023A446C3
:102B100030BC1A461821604770B51646044618297D
:102B200024D004DC142914D0172904D105E0192974
:102B30003DD020294CD0002070BD1D4606E02978EC
:102B40002046FFF744FA761EF6B26D1C002EF6D131
:102B50003EE001224C2100F0F9F901224D212046EE
:102B600000F0F4F92046FFF70BFA31E094F8250065
:102B700040B12046FFF714FA2046FFF701FA20463D
:102B8000FFF703FA2046FFF70BFA2046FFF7F4F9A8
:102B90002046FFF7F5F92046FFF7EAF9012184F80E
:102BA0002510204694F82410FFF711FA10E0FFF7E3
:102BB000E3F92046FFF7E4F92046FFF7E6F920465F
:102BC000FFF7EEF92046FFF7DBF9002084F8250037
:102BD000012070BD30B4C4680023A44630BC1A463E
:102BE0001921604730B4C4680023A4460A4630BCAB
:102BF0001621604730B4C4680023A4460A4630BC9E
:102C00001521604730B4C4681346A4460A4630BC58
:102C100017216047F8B50C464FEA000514F8011B70
:102C2000182924D00EDC152919D0162917D01729F8
:102C300023D120788DF800006A4601212846FFF74D
:102C4000E1FF0AE0192912D0FE2916D122788DF869
:102C500000202921284600F079F9641CDEE722785B
:102C60008DF80020EE6800232846B047F5E70023E2
:102C7000EE681A462846B047D0E7F8BD30B4C468BD
:102C80000023A44630BC1A46182160472DE9F041C4
:102C9000DFF8B08014460646A1F11402002798F828
:102CA00000001D46062A4AD2DFE802F02F03161B59
:102CB0003E4310B13046FFF718FF3046FFF724FFC0
:102CC00000213046FFF719FF21463046FFF715FF78
:102CD000012088F8000029E021463046FFF70DFF6B
:102CE00024E050B13046FFF700FF06E018213046DF
:102CF00000F032F9183CE4B21835182C2A46F5D801
:102D00002146304600F028F90EE096F82400FF280E
:102D100002D1782086F8240037692B4622463046B7
:102D2000BC46BDE8F041604788F800700120BDE86E
:102D3000F0810028F8D03046FFF7D7FEF4E70020F6
:102D4000F5E700000400002070B500234569044643
:102D50001A462821A8470023E5681A461421204670
:102D6000A84701224B21204600F0F0F820682921D5
:102D70000279204600F0EAF800224B21204600F0BC
:102D8000E5F8206829210279204600F0DFF80122C9
:102D90004B21204600F0DAF82068292142792046AC
:102DA000BDE8704000F0D2B80160897C80F8221044
:102DB0007047000070B50C46054600F019F888B958
:102DC000092C0BD00A2C01D0002070BD2846FFF73B
:102DD000BBFF05492846FFF71DFF03E003492846CE
:102DE000FFF7E2FF012070BD923300089434000821
:102DF0002DE9F0411E46144605460B2908D00D2941
:102E00000ED00E291ED00F2927D00020BDE8F0815A
:102E10001AB12849FFF7FEFE4AE02649491FF9E7A3
:102E20004AB124490C31FFF7F5FE286890F81300E9
:102E300085F822003CE01F49491DFFF7EBFE28689A
:102E4000807CF5E7FFF71AFF81212846FFF7D2FEC5
:102E500021462846FFF7C6FE27E0FFF70FFF7079EF
:102E600095F8221001EBC000C7B240212846FFF7B9
:102E7000C1FE102040EA17112846FFF7BBFE07F0FD
:102E80000F012846FFF7AEFEB07940F0B0012846AA
:102E9000FFF7A8FE30793268C006010E2846FFF71A
:102EA000B1FE641E14F0FF04F4D12846FFF792FE31
:102EB0000120ABE7713300080020704710B5224BAA
:102EC0004D2934D00CDC2B2918D004DC292920D042
:102ED0002A290ED114E02D291FD04C2909D120E038
:102EE000002250292CD051292AD0522928D05329E8
:102EF00026D0012180F82710012010BD00BFFBE77C
:102F000000204FF4A07100BF401C80B28842FAD369
:102F1000F2E70120FDF7CAFEEEE70520FFF700F813
:102F2000EAE7012A01D0002AE6D1202104E0012AA3
:102F300001D0002AE0D110211846FDF7BEFFDBE7E3
:102F400080F82720D8E700000008014030B4446929
:102F50000023A44630BC60472DE9F04115460E46DB
:102F60000446FFF7D1FD40212046FFF7C6FD276943
:102F70002B46324617212046B8472046BDE8F0418F
:102F8000FFF7B3BD002180F8261070475F000302F1
:102F90000304030504050A00FE07FE0700014202C0
:102FA0008803B6200500620721073943C7A0042221
:102FB000079B52476209230E3D424F294906A5321D
:102FC00028A52401240C3D4257B6D4B624D92200AA
:102FD000250C3D424FA474ABB4480900260D3D4278
:102FE0004F9644495649A4480927061953C7002853
:102FF00008BB425752AA152909BB424756AA94005A
:103000002A0A2D4647965406A52D2B0A2D465718F9
:103010000D5218012C079B3E8F52022D060D4EC7F4
:10302000202E089B3E4FB224002F083D4267AD631F
:1030300008300B3D425796D46C492D02310A3D426F
:1030400057262561D320320C3D42CF92859194853D
:103050008300330C3D42C7206699AA250B00340C2F
:103060003D425F2625A564D0C204350B3D42C731E1
:1030700031855AB200360C3D4297948589494B16EA
:1030800000370B3D42C720666156CC00380C3D42EC
:10309000CF9269C99269C902390C3D42CF92498ADF
:1030A000126691043A0ABB3E4FB2A4C992003B0992
:1030B000BB3E4FB2A44A093C08BC425FD4D8003D95
:1030C000081D4AC7A00E023E08BC4247D8D4063F9E
:1030D0000A3D42CF9235E65004400C3D42CF924922
:1030E0004B62491700410C3D425796D4B461C8B4B5
:1030F00000420D3D42C71055A264AA448302430A10
:103100003D42CF92896DC902440F3D42C71055A27E
:10311000244AA2241A1400450B3D42C7311C9230A8
:103120001C04460A3D42C7311C92B008470B3D4281
:10313000CF9289A52D5900480A3D4247661B86CC8F
:10314000164908BB42C71275194A0A3D42D716B63E
:103150004491044B0D3D42472625252D892A5900CF
:103160004C083D4247D8E3204D0B3D4247A62D4B2E
:10317000A2D9024E0C3D4247A64D4A226D5A004F3D
:103180000A3D42CF92794B1600500C3D42C79064E5
:10319000DAA0844500510A453ECF9279A9AC01528C
:1031A0000D3D42C79064DAA0942A5900530B3D426A
:1031B000CF92A9AB962C0054093D42C720853D0112
:1031C00055093D4247E65BB200560D3D4247664B0E
:1031D0004A4994641100570A3D4247E69228C92D96
:1031E000580B3D4247A625B54A4D0B590A3D42476B
:1031F000A625B5B0095A0A3D42C720661D07015BE6
:1032000008BB42C710751A5C083D424798760C5DB2
:1032100008BB42C7D469085E081D525796D4025FA6
:10322000060D3EC7206006125B4714610A2D42CF8F
:103230009A0C5A3204620B3D424758316993A200FE
:10324000630A2D42CF928959B200640A3D4267C594
:10325000B4498A12650A2D42CF920D43BA00660B1B
:103260003D429754C98628AC01670C3D3ACFA0690E
:10327000C9106AC902680A3D4247583169B60069F7
:1032800008BB424F28B50C6A0BCC3A5FACD5242959
:1032900051006B0B3D4247589392A992056C08BBB5
:1032A0004287D4CB006D0B2D4287D2A2244AA205BF
:1032B0006E092D424762D26C016F092D42CF92D91F
:1032C0009205700C3D3A4762D22645094300710AC7
:1032D0003D3A8F699314252C72092D424762128B57
:1032E0000073092D42CF921E1400740C3D424F987A
:1032F0000D51588A140075092D4247E6A42801761D
:103300000B2D4247A625A5248B00770A2D42476640
:1033100049942E00780A2D424796D42AB500790C9C
:103320003D3A47665294504B16007A092D42C7A089
:10333000B50D027B0ABC4297122662140A7C06393C
:1033400043C7217D0BBC428718854A9848007E09F7
:103350001D524FA424520200000004FFFF00000091
:10336000132A0008172A0008EB2400081815AF19C3
:10337000FF1815AE19FF1815A115C819FF1815A0CB
:1033800015C019FF1815A115C019FF1815A015C8EB
:1033900019FF1815AE15D5168015A8163F15D316AA
:1033A000001540158D16141520160015A115C81509
:1033B000DA1612158116CF15D916F115DB16401540
:1033C0002E15A415A619FF1815AE15D5168015A82B
:1033D000163F15D316001540158D1614152016002E
:1033E00015A115C815DA1612158116EF15D916A1F3
:1033F00015DB1600152E15A415A619FF1815AE1508
:10340000D5168015A8163F15D316001540158D1634
:10341000141520160015A115C815DA160215811607
:10342000CF15D916F115DB1640152E15A415A619C2
:10343000FF1815AE15A415D5165015A8163F15D3AF
:103440001600154015AD168B15D9162215DB16354D
:103450001532158116FF15A615DA161219FF181563
:10346000AE15D5168015A8163F15D31600154015B4
:103470008D16141520160015A115C015DA16121593
:103480008116CF15D916F115DB1640152E15A4158A
:10349000A619FF000001140A6464323200127A0097
:1034A0000004289610080000800040000001140A63
:1034B0006464323200093D000004289610080202BC
:1034C00080004000010202030405060708090A0BF8
:1034D0000C0D0E0F10100000000000000000010293
:1034E00003040607080900000000010203040000AD
:1034F00010350008000000201C0000002801000812
:103500002C3500081C000020AC0B00004401000812
:1035100000000000000000000000000001000000AA
:0C35200010000000000000000024F40077
:04000005080000ED02
:00000001FF
