:020000040800F2
:100000002805002005010008DB1900081918000860
:10001000D9190008B5020008511C000800000000B2
:10002000000000000000000000000000DF190008D0
:10003000EF02000800000000DD190008E1190008C7
:100040001F0100081F0100081F0100081F01000810
:100050001F0100081F0100081F0100081F01000800
:100060001F0100081F0100081F010008B902000855
:100070001F0100081F0100081F0100081F010008E0
:100080001F0100081F0100081F0100081F010008D0
:100090001F0100081F0100081F0100081F010008C0
:1000A0001F0100081F0100081F0100081F010008B0
:1000B0001F0100081F0100081F0100081F010008A0
:1000C0001F0100081F0100081F0100081F01000890
:1000D0001F010008391C0008451C00081F0100080A
:1000E0001F0100081F0100081F010008DFF810D0E1
:1000F00000F02CF800480047911C0008AFF3008086
:10010000280500200648804706480047FEE7FEE72E
:10011000FEE7FEE7FEE7FEE7FEE7FEE7FEE7FEE7B7
:100120005D1A0008ED000008D2B201E000F8012BD2
:10013000491EFBD270470022F6E710B513460A4667
:1001400004461946FFF7F0FF204610BD064C074D48
:1001500006E0E06840F0010394E807009847103497
:10016000AC42F6D3FFF7C6FF2C1D00084C1D00085B
:1001700070B5044600688168C943C90717D1816812
:1001800021F00101816000F089FD05460AE000BF11
:1001900000F084FD401B022804D920688068C04319
:1001A000C00706D020688068C043C007F0D0002098
:1001B00070BDA06A40F01000A062E06A40F001004B
:1001C000E062012070BD10B50146406A826A12F0FB
:1001D000500F05D0006A026BBDE81040084610477A
:1001E000816A41F40071816201688968C1F342410A
:1001F00007290CD1017B51B9816A21F48071816298
:10020000816AC90403D4816A41F00101816200F06E
:100210005BF910BD10B5406A816A41F0400181620E
:10022000C16A41F00401C16200F050F910BD10B57F
:10023000406A00F04AF910BDF8B500260446009661
:1002400000688168C943C9072DD0816841F0010168
:100250008160164816490068B0FBF1F000E0401ECE
:1002600000900028FBD100F019FD054616E000BF04
:1002700000F014FD401B022810D920688068C0439C
:10028000C0070BD0A06A40F01000A062E06A40F006
:100290000100E06284F824600120F8BD20688068D5
:1002A000C043C007E4D10020F8BD000020000020BA
:1002B00040420F00FEE70000014800F0D3BA000002
:1002C0005400002030B590F840500124AC40C56B7C
:1002D0006C60046863604368102B036803D0996006
:1002E0000068C26030BD9A600068C16030BD704770
:1002F00072B6FEE7F8B500250446009590F8240094
:1003000001280BD0012084F824002046FFF730FF9D
:100310002046FFF791FF060002D050E00220F8BD12
:10032000A06A20F4885040F00200A062022000F091
:1003300053FD25490968B1FBF0F0400000E0401E84
:1003400000900028FBD12068816841F0080181609D
:1003500000F0A4FC074608E000F0A0FCC01B0A283F
:1003600003D920688068000715D4206880680007DA
:10037000F2D42068816841F00401816000F08EFCB5
:10038000074612E000F08AFCC01B0A280DD920683D
:100390008068400709D5A06A20F0020040F01000F4
:1003A000A06284F824500120F8BD206880684007CE
:1003B000E8D4A06A20F0020040F00100A06284F8B6
:1003C00024503046F8BD000020000020F8B500247D
:1003D000009490F824202546012A12D0012280F8AA
:1003E00024204A681F23072A0DD20668776B521E05
:1003F00002EB820293409F430B6893401F43776355
:1004000019E00220F8BD06680D2A0AD2376BD21F08
:1004100002EB820293409F430B6893401F43376374
:1004200009E0F76A0D3A02EB820293409F430B68A2
:1004300093401F43F7620A68072306680A2A0AD313
:10044000F7680A3A02EB420293409F438B6893405D
:100450001F43F76008E0376902EB420293409F4375
:100460008B6893401F4337610A68102A01D0112A14
:1004700020D1124B02689A4217D193681B0219D4FB
:10048000936843F4000393600968102912D10C4962
:100490000C4A0968B1FBF2F101EB8101490000E06F
:1004A000491E00910029FBD104E0816A41F020013E
:1004B0008162012480F824502046F8BD00240140C8
:1004C0002000002040420F00704770477047000036
:1004D0002DE9F0414FF0000704003D467ED0A06AB0
:1004E000002628B9E66284F82460204600F07EF8F1
:1004F0002046FFF73DFEA16AC90600D420B1A06ADC
:1005000040F01000A06269E0A16A21F4885141F036
:100510000201A1626268E169237B0A4347EA430161
:100520000A43A1684FF48077B94209D0012907D066
:100530005FF0000194F814C0BCF1010F02D00AE092
:100540003946F7E7F3B1A36A43F02003A362E36AF5
:1005500043F00103E3622368D3F804C02CF4694C30
:100560004CEA010CC3F804C021688B68DFF870C046
:1005700003EA0C0313438B60A168B9420BD0012935
:1005800009D00CE0DFF85CC0A3690CEB43330B43EC
:1005900043F40061DFE7218A0D05A5F58015216888
:1005A000CB6A23F470032B43CB62216889680E4B1E
:1005B0001940914208D1E662A16A21F0020141F09E
:1005C0000101A162BDE8F081A06A20F0020040F0C4
:1005D0001000A062E06A40F00100E0620120F1E753
:1005E000FDF7E1FF00E0FFFFFE0E1FFF70B586B0D4
:1005F0000025064600950195029503950068194966
:1006000088422DD11849886940F400708861886952
:1006100000F400700490886940F0040088618869E3
:10062000694600F0040004900320009001900F48F8
:1006300000F03AFA0F4C0E48C4E900058020C4E9E6
:10064000025040002061800060612020C4E906055E
:10065000204600F0B1F908B1FFF74AFE3462666245
:1006600006B070BD002401400010024000080140A7
:1006700008000240540000202DE9F0478946044656
:100680003B4900683B4F0E1D9046884201D0B8425E
:1006900007D1306810F4702F03D001252846BDE83B
:1006A000F08794F8240001280CD0012084F824005D
:1006B0002046FFF7C1FD05004FF0000004D084F88C
:1006C0002400EBE70220EAE7A16A40F601629143C9
:1006D00041F48071A1622168B94218D1326812F4E4
:1006E000702F14D0A16A41F48011A16231684905CC
:1006F00005D5A16A21F4005141F48051A162A16A9B
:10070000C9040AD5E16A21F00601E16206E0A26AA5
:1007100022F48012A2624968E9E7E06284F82400CA
:10072000216A15488862216A1448C862216A1448FF
:10073000086321686FF0020008602068816841F456
:1007400080718160216843464A464C31206A00F03E
:1007500061F920688168C1F342410729816803D0AB
:1007600041F48011816099E741F4A001FAE70000AB
:100770000024014000280140C70100082F020008A2
:100780001502000810B590F821100022022905D0AA
:100790000421816380F82020012010BD01680B68CE
:1007A00023F00E030B6001680B6823F001030B605C
:1007B00090F84030C46B012101FA03F3636080F8C4
:1007C000211080F82020104610BD000010B590F8D0
:1007D00021100024022903D00421816301243DE07B
:1007E00001680A6822F00E020A6001680A6822F0B5
:1007F00001020A601A4A0168914201D1012121E0F7
:10080000174A1432914201D110211BE0144A2832B8
:10081000914201D1891515E0114A3C32914201D132
:1008200089140FE00E4A5032914202D14FF48031C8
:1008300008E00B4A6432914202D14FF4801101E08A
:100840004FF08071064A083A5160012180F821106A
:10085000002180F82010416B01B18847204610BD6F
:10086000080002402DE9F05FC16B0C6801680B685D
:10087000D0F840C0042202FA0CF2494DDFF824A15E
:10088000494E4A4FDFF828B1DFF828E122422CD048
:100890005A072AD50A68920603D40A6822F004028D
:1008A0000A600168A94201D1042219E0514501D131
:1008B000402215E0B14202D14FF4806210E0B9420B
:1008C00002D14FF480420BE0594502D14FF480220F
:1008D00006E0714502D14FF4800201E04FF08062E2
:1008E0002F4908394A60C16A3BE04FF0020808FA14
:1008F0000CF818EA040F4FF000094FF0010235D050
:100900005FEA837832D50B689B0605D40B6823F029
:100910000A030B6080F821200168A94201D102225C
:1009200019E0514501D1202215E0B14202D14FF426
:10093000007210E0B94202D14FF400520BE0594569
:1009400002D14FF4003206E0714502D14FF400129B
:1009500001E04FF00072124908394A6080F8209097
:10096000816A00291AD0BDE8F05F0847082505FA1A
:100970000CF5254212D01B0710D50B6823F00E038F
:100980000B6090F84010C36B02FA01F1596082636A
:1009900080F8212080F82090016BE2E7BDE8F09F0D
:1009A000080002401C0002403000024044000240A7
:1009B000580002406C00024030B528B308C8134903
:1009C00014221944B1FBF2F18900C163104981631B
:1009D000022141771A6843F6F0718A43D0E9001486
:1009E0002143D0E902452C43214304692143446952
:1009F000214384692143114319600021416301228D
:100A000042770177084630BD012030BDF8FFFDBFB9
:100A10000000024070B5044690F82000002501282F
:100A20000CD0012084F8200094F821600020012ED1
:100A300006D084F820000225284670BD022070BD33
:100A4000022684F82160A0632068066826F001066B
:100A500006602046FFF736FCE06A0028206801683F
:100A600002D041F00E0106E021F00401016020688F
:100A7000016841F00A0101602068016841F001014C
:100A80000160D9E770B5044600F008F90546601C1E
:100A900002D004480078044400F000F9401BA04252
:100AA000FAD370BD140000202DE9F84FDFF8B8919B
:100AB0000024A9F1040B23460F2709F1040AABF126
:100AC000040EC9E00125A5402A40AA427DD1674E07
:100AD000D1F804C0ACEB0608B44532D014DCBCF14C
:100AE000030F3AD009DCBCF1000F2AD0BCF1010F92
:100AF0001CD0BCF1020F31D11DE0BCF1110F17D099
:100B0000BCF1120F2AD119E0B8F5881F19D006DC04
:100B1000B8F5803F15D0B8F5801F1FD111E0B8F5AA
:100B2000001F0ED0B8F5041F18D10AE0CB6815E0FD
:100B3000CB681B1D12E0CB6808330FE0CB680C3389
:100B40000CE08B682BB1012B4FF0080303D04561FB
:100B500004E0042302E0056100E00023FF2A01D83D
:100B6000064601E000F104064FEA840501D9A5F12B
:100B70002005D6F8008007FA05FC28EA0C0803FADD
:100B800005F548EA0508C6F800804D68ED0062D515
:100B9000374DAE6946F00106AE61AD6924F003063B
:100BA00005F001050095334D06EB050CDCF8085007
:100BB000A607360F07FA06F825EA0805DFF8B88019
:100BC000404503D14FF0000817E044E0DFF8AC8067
:100BD000404502D14FF001080FE0DFF8A480404506
:100BE00002D14FF0020808E0DFF89880404502D1BA
:100BF0004FF0030801E04FF0040808FA06F848EA4D
:100C00000508CCF808804D68D9F80060ED024D4623
:100C100001D5164300E096432E604D68DAF8006077
:100C2000AD02554601D5164300E096432E604D684F
:100C3000DBF80060AD035D4601D5164300E0964346
:100C40002E604D68DEF80060ED03754601D5164351
:100C500000E096432E60641C0D682A46E5407FF450
:100C600031AFBDE8F88F000008040140000011100A
:100C7000001002400000014000080140000C01404B
:100C800000100140001401408068084000D001209D
:100C900070470AB1016170470904FBE701488068A9
:100CA0007047000014000020024881680278114457
:100CB0008160704714000020074810B5016841F0BA
:100CC00010010160032000F075F8002000F006F824
:100CD00000F024F8002010BD0020024070B50D4D3A
:100CE00004464FF47A712878B1FBF0F00A4909689C
:100CF000B1FBF0F000F0A4FB48B9102C07D20022A1
:100D00002146501E00F036F800206C6070BD0120B6
:100D100070BD000014000020200000200C4808B521
:100D2000816941F001018161816901F00101009156
:100D3000C16941F08051C161C06900F080500090EC
:100D40000448416821F0E06141F00071416008BD54
:100D50000010024000000140002809DB00F01F02E3
:100D6000012191404009800000F1E020C0F800110D
:100D700070470000F0B40E4B1B680C46C3F302230F
:100D8000C3F10705042D00D90425191D072901D237
:100D9000002300E0DB1E012606FA05F1491E214072
:100DA00099409E40761E16403143F0BC00F051BF82
:100DB0000CED00E0064900F0070208684FF6FF035B
:100DC000184040EA0220034A1043086070470000C0
:100DD0000CED00E00000FA0510B501460020234CA0
:100DE000012922D0022939D010291DD16168226839
:100DF000D20119D51E48C1F38342C903805C0AD5CC
:100E000061681B4AC1F34041921E515C194AB2FB12
:100E1000F1F1484301E0184948436168490203D4AD
:100E200040000321B0FBF1F010BD226AC2F30121A2
:100E3000012903D1920701D5C80310BD022905D1AC
:100E4000626A920702D549F6404010BD0329FCD1E1
:100E500021688903F9D54FF2244010BD00F02AF92A
:100E60006168C1F38131491C4900DBE70010024091
:100E7000041D000800127A0000093D002DE9F84326
:100E800005460078354CC00754D0E0690026C00004
:100E900008D4E06940F08050E061E069012600F08C
:100EA000805000902E480168C90512D40168804620
:100EB00041F480710160FFF7F1FE074605E000BFD5
:100EC000FFF7ECFEC01B642823D8D8F80000C0054B
:100ED000F6D5206A10F4407021D0A98801F4407141
:100EE00081421CD0206A1F49012220F440700A6010
:100EF00000220A602062C00711D0FFF7CFFE07462C
:100F000041F2883808E000BFFFF7C8FEC11B414529
:100F100002D90320BDE8F883206A8007F4D5206A4F
:100F2000696820F44070084320621EB1E06920F037
:100F30008050E0612878800705D56068A96820F4B2
:100F40004040084360602878C00605D56068E968BD
:100F500020F48000084360600020DBE700100240BE
:100F600000700040400442422DE9F0470F46050062
:100F700061D0434E306800F00700B84209D23068B3
:100F800020F0070038433060306800F00700B842B6
:100F900051D128683B4C810712D5400703D56068C2
:100FA00040F4E06060602878000703D5606840F492
:100FB000605060606068A96820F0F00008436060DD
:100FC0002878C00728D06868012810D02168022836
:100FD00010D0890700292EDA616821F0030101434E
:100FE0006160FFF75BFE804641F288390DE02168C1
:100FF0008903EFE78901EDE7FFF750FEA0EB080159
:10100000494502D90320BDE8F0876068696800F0AF
:101010000C00B0EB810FEFD1306800F00700B84250
:101020000BD9306820F0070038433060306800F09A
:101030000700B84201D00120E5E72878400705D530
:101040006068E96820F4E060084360602878000781
:1010500006D56068296920F4605040EAC1006060EC
:1010600000F038F86168084AC1F30311515CC840C8
:101070000649086006480068FFF730FE0020C2E716
:101080000020024000100240141D00082000002033
:10109000180000200448054900684968044AC1F363
:1010A0000221515CC840704720000020001002401F
:1010B000241D00080448054900684968044AC1F332
:1010C000C221515CC840704720000020001002403F
:1010D000241D00080E4A51680E4801F00C03042B31
:1010E00011D0082B0FD10C48C1F38343C903C05C56
:1010F0000AD55168084AC1F34041921E515C054A25
:101100005043B0FBF1F0704704494843704700007A
:101110000010024000127A00F21C000800093D0095
:101120002DE9F84F040070D02078C04DC00749D099
:101130006868C0F38100012807D06868C0F38100A7
:10114000022809D16868C00306D52868800339D50C
:1011500060680028E7D035E06068B0F5803F0BD0CC
:1011600010B1B0F5A02F11D0286820F4803028608D
:10117000286820F4802002E0286840F4803028604D
:10118000606890B1FFF78AFD06460AE0286840F4DF
:1011900080202860F0E700BFFFF780FD801B6428F7
:1011A00073D828688003F7D50CE0FFF777FD064673
:1011B00005E000BFFFF772FD801B6428F0D82868A7
:1011C0008003F7D420789A4E80074FF001094FF042
:1011D000000839D5686810F00C0F07D06868C0F3B4
:1011E0008100022809D16868C00306D428688007F6
:1011F00014D52069012808D110E02069B0B1C6F8E3
:101200000090FFF74BFD074605E00AE1FFF746FDBA
:10121000C01B0228C4D828688007F7D528686169F0
:1012200020F0F80040EAC10028600DE0C6F8008018
:10123000FFF734FD074604E0FFF730FDC01B02282E
:1012400023D828688007F7D4207800072CD5794860
:10125000A169D9B1C0F80090FFF720FD074604E06E
:10126000FFF71CFDC01B02280FD8686A8007F7D55E
:1012700071484FF4FA510068B0FBF1F0009000BFE4
:101280000098411E0091FAD20EE080E0C0F8008084
:10129000FFF704FD074604E0FFF700FDC01B02282E
:1012A00075D8686A8007F7D42078400760D5E86968
:1012B0000027C00008D4E86940F08050E861E86980
:1012C000012700F0805000905C480168C90513D4E4
:1012D0000168834641F480710160FFF7DFFC8246BC
:1012E00006E000BFFFF7DAFCA0EB0A0064284ED846
:1012F000DBF80000C005F5D5E06801280AD008B188
:10130000052813D0286A20F001002862286A20F0FE
:10131000040002E0286A40F001002862E06841F21F
:10132000883B98B1FFF7BAFC82460BE0286A40F090
:1013300004002862EEE700BFFFF7B0FCA0EB0A0153
:1013400059455AD8286A8007F6D50CE0FFF7A6FC65
:10135000824605E0FFF7A2FCA0EB0A0159454CD8F4
:10136000286A8007F6D41FB1E86920F08050E86150
:10137000E06988B36968C1F38101022944D0022879
:10138000C6F8608004D0FFF789FC044638E034E0FA
:10139000FFF784FC074604E0FFF780FCC01B02282F
:1013A0002BD828688001F7D4206AB0F5803F05D19A
:1013B0006868A16820F4003008436860D4E9080137
:1013C0000843696821F4741108436860C6F86090A6
:1013D000FFF764FC044606E025E000BFFFF75EFC73
:1013E000001B022809D828688001F7D51BE000BF40
:1013F000FFF754FC001B022802D90320BDE8F88F38
:1014000028688001F4D40EE00128F7D06868226AC9
:1014100000F48031914204D1616A00F47010884276
:1014200001D00120EAE70020E8E7000000100240B8
:101430000000424280044242200000200070004030
:1014400010B5401EB0F1807F01D3012010BD4FF0D8
:10145000E02460610F21601700F0FBFB0020A06119
:1014600007202061002010BD70477047F8B5016863
:1014700004460868CA684B6910F00F0F4FF000056A
:1014800059D003F0010602F49077374365D0C107C5
:1014900005D0D10503D5616C41F0010161644107BC
:1014A00005D5D90703D0616C41F002016164810761
:1014B00005D5D90703D0616C41F0040161640107CF
:1014C00007D502F02001314303D0616C41F00801DF
:1014D0006164616C00293AD0800604D5900602D57B
:1014E000204600F0EBFA20684069616CC0F3801080
:1014F000090700D460B3204600F0B9FA20684069BB
:10150000400621D52068143050E8001F21F040012A
:1015100040E80012002AF5D1E06BA8B16D494163A3
:10152000E06BFFF753F9002811D0E06B416B01B07D
:10153000BDE8F040084783060FD593060DD5204639
:10154000BDE8F84000F0BABA2046FFF78EFFF8BDBC
:101550002046FFF78AFF6564F8BD266B2023012E25
:101560007CD1C6067AD5D60678D50868486800903A
:1015700048694FF00206400640D5E16B08684068B4
:101580000004000CE8D0A28D8242E5D9E08588698C
:1015900020282DD020680C3050E8001F21F48071E5
:1015A00040E80012002AF5D12068143050E8001FEE
:1015B00021F0010140E80012002AF5D12068143022
:1015C00050E8001F21F0400140E80012002AF5D148
:1015D00084F84230256320680C3050E8001F21F069
:1015E000100140E80012002AF5D1E06BFFF7CAF8BD
:1015F0006663A08DE18D401A81B22AE0A08DE18D55
:10160000401A81B2E08D0028A6D00029A4D022681B
:101610000C3252E8000F20F4907042E80007002FCF
:10162000F5D12068143050E8002F22F0010240E884
:101630000027002FF5D184F84230256320680C3054
:1016400050E8002F22F0100240E80023002BF5D1D3
:1016500066632046FFF708FFF8BDFFE705062BD5B8
:10166000150629D594F841002128F5D1A068B0F5D8
:10167000805F01D12069B0B1206A411C21622168DC
:1016800000784860E08C401E0004000CE084E3D148
:101690002068C16821F08001C1602068C16841F004
:1016A0004001C160D8E7206A0088C0F308004860A4
:1016B000206A801C2062E5E74006CDD55006CBD5D8
:1016C000CA68204622F04002CA6084F8413000F027
:1016D000A2F8C1E75F1A000870B5040004D094F8BE
:1016E0004100002510B106E0012070BD84F8405093
:1016F000204600F023F8242084F841002068C168C7
:1017000021F40051C160204600F03AFA20680169D6
:1017100021F4904101612068416921F02A01416171
:101720002068C16841F40051C1606564202084F8DC
:10173000410084F842006563002070BD70B586B03A
:10174000002400940194029403942E4E03682E49C1
:10175000022003222D4DB34226D18B6943F48043EE
:101760008B618B6903F4804304938B6943F004031A
:101770008B618969039201F0040104910102CDE9B2
:10178000001069462846FFF78FF92815CDE90004B7
:10179000694628460294FFF787F900220121252097
:1017A000FFF7E8FA252028E0194EB34227D1CB698C
:1017B00043F40033CB61CB6903F4003304938B69AA
:1017C00043F004038B618969039201F004010491E1
:1017D0000421CDE9001069462846FFF765F9082085
:1017E000CDE90004694628460294FFF75DF900221E
:1017F00002212620FFF7BEFA2620FFF7ADFA06B039
:1018000070BD000000380140001002400008014097
:101810000044004070477047FEE70000FEB500241A
:10182000164800940194144902940160891581605E
:1018300004730475022505614FF460214460C161A1
:10184000FEF746FE08B1FEF753FD0126CDE900463E
:1018500069460A480294FEF7B9FD08B1FEF748FD53
:10186000CDE9006569460548FEF7B0FD002801D0C6
:10187000FEF73EFDFEBD00000024014024000020D4
:10188000094808B5416941F0010141614069002200
:1018900000F00100009011460B20FFF76BFABDE845
:1018A00008400B20FFF758BA001002402DE9F04322
:1018B00085B000242948009401940294039481691E
:1018C00041F010018161816901F010010491816989
:1018D00041F020018161816901F020010491816959
:1018E00041F004018161816901F004010491816981
:1018F00041F0080181618069DFF8648000F0080030
:101900000490002230214046FFF7C3F9DFF85490DD
:101910004FF48257002239464846FFF7BAF9302083
:1019200001250226CDE90005CDE90246694640467B
:10193000FFF7BAF800970396CDE901546946484687
:10194000FFF7B2F88020CDE90004694648460294CA
:10195000FFF7AAF805B0BDE8F083000000100240D0
:1019600000080140000C01400C4810B50A49016014
:101970004FF4E1314160002181600C22C160C0E977
:1019800004128161C161FFF7A7FE002803D0BDE802
:101990001040FEF7ADBC10BD00380140980000209B
:1019A0000C4810B50A4901604FF4E1314160002153
:1019B00081600C22C160C0E904128161C161FFF73E
:1019C0008BFE002803D0BDE81040FEF791BC10BD8F
:1019D00000440040E0000020FEE7FEE7704770474B
:1019E000FFF762B930B593B028216846FEF7A3FB34
:1019F00014210AA8FEF79FFB002501200F951095E2
:101A00001195010412958DE8230004904FF4E01025
:101A1000CDE90810022407946846FFF781FB08B15E
:101A200072B6FEE70AA90F2081E831004FF480600A
:101A3000CDE90D0502210AA8FFF796FA08B172B6A2
:101A4000FEE74FF4004011900F940FA8FFF716FA2D
:101A5000002801D072B6FEE713B030BD704710B554
:101A6000406A0021C185C184FFF7FFFC10BD0168F9
:101A70000C3151E8002F22F4907241E80023002B32
:101A8000F5D10168143151E8002F22F0010241E83C
:101A90000023002BF5D1016B012909D101680C311C
:101AA00051E8002F22F0100241E80023002BF5D16D
:101AB000202180F8421000210163704708B590F89A
:101AC0004210222901D0022008BD82684FF48053C1
:101AD0009A4201D1016921B1816A9A421BD04AB16F
:101AE0000AE00268816A5268C2F308020A80816AC9
:101AF000891C08E0026972B10268526802F07F0234
:101B00000A70816A491C8162C18D491E0904090C51
:101B1000C18503D01BE002685268F1E70168CA681A
:101B200022F02002CA600168CA6822F48072CA608A
:101B300001684A6922F001024A61202180F84210BE
:101B400000214163026B012A03D0FFF763FE0020EE
:101B500008BD016301680C3151E8002F22F010022A
:101B600041E80023002BF5D101680A68D20602D5AE
:101B70000A6849680091818DFFF776FCE7E700006D
:101B800070B5044600680169E26821F440511143D0
:101B900001612169A0680843616908432168CA6836
:101BA00041F20C639A430243CA6020684169A2690A
:101BB00021F44071114341611E492068884202D1DD
:101BC000FFF778FA01E0FFF765FA00EBC00101EBDF
:101BD0000012606864218000B2FBF0F3B3FBF1F304
:101BE0006FF018067343B2FBF0F5B2FBF0F605EBAD
:101BF0008305322303EB0515B5FBF1F5B6FBF1F6D2
:101C000005F0F00505EB0615B2FBF0F6B2FBF0F0BF
:101C1000B0FBF1F06FF01802504306EB800003EBCD
:101C20000010B0FBF1F0216800F00F00284488603C
:101C300070BD0000003801400148FFF717BC0000EC
:101C4000980000200148FFF711BC0000E0000020D0
:101C5000FEE70907090E002804DB00F1E02080F808
:101C60000014704700F00F0000F1E02080F8141D10
:101C7000704702E008C8121F08C1002AFAD1704755
:101C80007047002001E001C1121F002AFBD17047FC
:101C9000FFF712F8FFF7A6FEFFF708FEFFF7F0FDCB
:101CA000FFF7BCFDFFF760FEFFF77AFE0D48FEF779
:101CB00021FB0D4D0D4EA5F10C044FF47A77022255
:101CC00009490848FEF7D8FC2888A0606888606049
:101CD00080213046FEF7D8FF20703846FEF7D2FE4E
:101CE000EDE70000240000200C000020000C014063
:101CF000010202030405060708090A0B0C0D0E0F6A
:101D00001010010202030405060708090A0B0C0D56
:101D10000E0F10100000000000000000010203047C
:101D20000607080900000000010203044C1D00081A
:101D30000000002024000000721C0008701D000834
:101D40002400002004050000821C000800000000A0
:101D50000000000000000000000000000000000083
:101D60000100000010000000000000000024F4004A
:04000005080000ED02
:00000001FF
